{
  "contractName": "CrowdFunding",
  "abi": [
    {
      "constant": true,
      "inputs": [],
      "name": "name",
      "outputs": [
        {
          "name": "",
          "type": "string"
        }
      ],
      "payable": false,
      "stateMutability": "view",
      "type": "function"
    },
    {
      "constant": true,
      "inputs": [],
      "name": "fundingDeadLine",
      "outputs": [
        {
          "name": "",
          "type": "uint256"
        }
      ],
      "payable": false,
      "stateMutability": "view",
      "type": "function"
    },
    {
      "constant": true,
      "inputs": [],
      "name": "beneficiary",
      "outputs": [
        {
          "name": "",
          "type": "address"
        }
      ],
      "payable": false,
      "stateMutability": "view",
      "type": "function"
    },
    {
      "constant": true,
      "inputs": [
        {
          "name": "",
          "type": "address"
        }
      ],
      "name": "amounts",
      "outputs": [
        {
          "name": "",
          "type": "uint256"
        }
      ],
      "payable": false,
      "stateMutability": "view",
      "type": "function"
    },
    {
      "constant": true,
      "inputs": [],
      "name": "collected",
      "outputs": [
        {
          "name": "",
          "type": "bool"
        }
      ],
      "payable": false,
      "stateMutability": "view",
      "type": "function"
    },
    {
      "constant": true,
      "inputs": [],
      "name": "targetAmount",
      "outputs": [
        {
          "name": "",
          "type": "uint256"
        }
      ],
      "payable": false,
      "stateMutability": "view",
      "type": "function"
    },
    {
      "constant": true,
      "inputs": [],
      "name": "state",
      "outputs": [
        {
          "name": "",
          "type": "uint8"
        }
      ],
      "payable": false,
      "stateMutability": "view",
      "type": "function"
    },
    {
      "constant": true,
      "inputs": [],
      "name": "totalCollected",
      "outputs": [
        {
          "name": "",
          "type": "uint256"
        }
      ],
      "payable": false,
      "stateMutability": "view",
      "type": "function"
    },
    {
      "inputs": [
        {
          "name": "contractName",
          "type": "string"
        },
        {
          "name": "targetAmountEth",
          "type": "uint256"
        },
        {
          "name": "durationInMin",
          "type": "uint256"
        },
        {
          "name": "beneficiaryAddress",
          "type": "address"
        }
      ],
      "payable": false,
      "stateMutability": "nonpayable",
      "type": "constructor"
    },
    {
      "anonymous": false,
      "inputs": [
        {
          "indexed": false,
          "name": "addr",
          "type": "address"
        },
        {
          "indexed": false,
          "name": "totalCollected",
          "type": "uint256"
        },
        {
          "indexed": false,
          "name": "suceeded",
          "type": "bool"
        }
      ],
      "name": "CampaignFinished",
      "type": "event"
    },
    {
      "constant": false,
      "inputs": [],
      "name": "contribute",
      "outputs": [],
      "payable": true,
      "stateMutability": "payable",
      "type": "function"
    },
    {
      "constant": false,
      "inputs": [],
      "name": "finishCrowdFunding",
      "outputs": [],
      "payable": false,
      "stateMutability": "nonpayable",
      "type": "function"
    },
    {
      "constant": false,
      "inputs": [],
      "name": "collect",
      "outputs": [],
      "payable": false,
      "stateMutability": "nonpayable",
      "type": "function"
    },
    {
      "constant": false,
      "inputs": [],
      "name": "withdraw",
      "outputs": [],
      "payable": false,
      "stateMutability": "nonpayable",
      "type": "function"
    },
    {
      "constant": true,
      "inputs": [],
      "name": "beforeDeadLine",
      "outputs": [
        {
          "name": "",
          "type": "bool"
        }
      ],
      "payable": false,
      "stateMutability": "view",
      "type": "function"
    }
  ],
  "bytecode": "0x60806040523480156200001157600080fd5b5060405162000f9038038062000f908339810180604052810190808051820192919060200180519060200190929190805190602001909291908051906020019092919050505083600090805190602001906200006f92919062000260565b5073__Utils_________________________________63d8916bb9846040518263ffffffff167c01000000000000000000000000000000000000000000000000000000000281526004018082815260200191505060206040518083038186803b158015620000dc57600080fd5b505af4158015620000f1573d6000803e3d6000fd5b505050506040513d60208110156200010857600080fd5b810190808051906020019092919050505060018190555073__Utils_________________________________63529b380f836040518263ffffffff167c01000000000000000000000000000000000000000000000000000000000281526004018082815260200191505060206040518083038186803b1580156200018b57600080fd5b505af4158015620001a0573d6000803e3d6000fd5b505050506040513d6020811015620001b757600080fd5b8101908080519060200190929190505050620001e162000258640100000000026401000000009004565b0160028190555080600360006101000a81548173ffffffffffffffffffffffffffffffffffffffff021916908373ffffffffffffffffffffffffffffffffffffffff1602179055506000600360146101000a81548160ff021916908360038111156200024957fe5b0217905550505050506200030f565b600042905090565b828054600181600116156101000203166002900490600052602060002090601f016020900481019282601f10620002a357805160ff1916838001178555620002d4565b82800160010185558215620002d4579182015b82811115620002d3578251825591602001919060010190620002b6565b5b509050620002e39190620002e7565b5090565b6200030c91905b8082111562000308576000816000905550600101620002ee565b5090565b90565b610c71806200031f6000396000f3006080604052600436106100c5576000357c0100000000000000000000000000000000000000000000000000000000900463ffffffff16806306fdde03146100ca578063083dca111461015a5780630eef346d1461017157806338af3eed1461019c5780633ccfd60b146101f357806355a3b2c11461020a57806384bcefd414610261578063953b8fb814610290578063c19d93fb146102bb578063c9b9b046146102f4578063d7bb99ba14610323578063e29eb8361461032d578063e522538114610358575b600080fd5b3480156100d657600080fd5b506100df61036f565b6040518080602001828103825283818151815260200191508051906020019080838360005b8381101561011f578082015181840152602081019050610104565b50505050905090810190601f16801561014c5780820380516001836020036101000a031916815260200191505b509250505060405180910390f35b34801561016657600080fd5b5061016f61040d565b005b34801561017d57600080fd5b506101866105b4565b6040518082815260200191505060405180910390f35b3480156101a857600080fd5b506101b16105ba565b604051808273ffffffffffffffffffffffffffffffffffffffff1673ffffffffffffffffffffffffffffffffffffffff16815260200191505060405180910390f35b3480156101ff57600080fd5b506102086105e0565b005b34801561021657600080fd5b5061024b600480360381019080803573ffffffffffffffffffffffffffffffffffffffff169060200190929190505050610842565b6040518082815260200191505060405180910390f35b34801561026d57600080fd5b5061027661085a565b604051808215151515815260200191505060405180910390f35b34801561029c57600080fd5b506102a561086d565b6040518082815260200191505060405180910390f35b3480156102c757600080fd5b506102d0610873565b604051808260038111156102e057fe5b60ff16815260200191505060405180910390f35b34801561030057600080fd5b50610309610886565b604051808215151515815260200191505060405180910390f35b61032b610899565b005b34801561033957600080fd5b50610342610aeb565b6040518082815260200191505060405180910390f35b34801561036457600080fd5b5061036d610af1565b005b60008054600181600116156101000203166002900480601f0160208091040260200160405190810160405280929190818152602001828054600181600116156101000203166002900480156104055780601f106103da57610100808354040283529160200191610405565b820191906000526020600020905b8154815290600101906020018083116103e857829003601f168201915b505050505081565b600080600381111561041b57fe5b600360149054906101000a900460ff16600381111561043657fe5b1415156104ab576040517f08c379a000000000000000000000000000000000000000000000000000000000815260040180806020018281038252600d8152602001807f496e76616c69642073746174650000000000000000000000000000000000000081525060200191505060405180910390fd5b6104b3610886565b151561054d576040517f08c379a000000000000000000000000000000000000000000000000000000000815260040180806020018281038252602e8152602001807f43616e6e6f742066696e697368207468652063616d706169676e206265666f7281526020017f652074686520646561646c696e6500000000000000000000000000000000000081525060400191505060405180910390fd5b600560009054906101000a900460ff16151561058c576001600360146101000a81548160ff0219169083600381111561058257fe5b02179055506105b1565b6002600360146101000a81548160ff021916908360038111156105ab57fe5b02179055505b50565b60025481565b600360009054906101000a900473ffffffffffffffffffffffffffffffffffffffff1681565b600060018060038111156105f057fe5b600360149054906101000a900460ff16600381111561060b57fe5b141515610680576040517f08c379a000000000000000000000000000000000000000000000000000000000815260040180806020018281038252600d8152602001807f496e76616c69642073746174650000000000000000000000000000000000000081525060200191505060405180910390fd5b6000600460003373ffffffffffffffffffffffffffffffffffffffff1673ffffffffffffffffffffffffffffffffffffffff16815260200190815260200160002054111515610737576040517f08c379a00000000000000000000000000000000000000000000000000000000081526004018080602001828103825260178152602001807f4e6f7468696e672077617320636f6e747269627574656400000000000000000081525060200191505060405180910390fd5b600460003373ffffffffffffffffffffffffffffffffffffffff1673ffffffffffffffffffffffffffffffffffffffff1681526020019081526020016000205491506000600460003373ffffffffffffffffffffffffffffffffffffffff1673ffffffffffffffffffffffffffffffffffffffff168152602001908152602001600020819055503373ffffffffffffffffffffffffffffffffffffffff166108fc839081150290604051600060405180830381858888f19350505050151561083e5781600460003373ffffffffffffffffffffffffffffffffffffffff1673ffffffffffffffffffffffffffffffffffffffff168152602001908152602001600020819055505b5050565b60046020528060005260406000206000915090505481565b600560009054906101000a900460ff1681565b60015481565b600360149054906101000a900460ff1681565b6000600254610893610c3d565b11905090565b60008060038111156108a757fe5b600360149054906101000a900460ff1660038111156108c257fe5b141515610937576040517f08c379a000000000000000000000000000000000000000000000000000000000815260040180806020018281038252600d8152602001807f496e76616c69642073746174650000000000000000000000000000000000000081525060200191505060405180910390fd5b61093f610886565b1515156109da576040517f08c379a00000000000000000000000000000000000000000000000000000000081526004018080602001828103825260238152602001807f4e6f20636f6e747269627574696f6e732061667465722074686520646561646c81526020017f696e65000000000000000000000000000000000000000000000000000000000081525060400191505060405180910390fd5b34600460003373ffffffffffffffffffffffffffffffffffffffff1673ffffffffffffffffffffffffffffffffffffffff1681526020019081526020016000206000828254019250508190555034600660008282540192505081905550600154600654101515610a60576001600560006101000a81548160ff0219169083151502179055505b7f6fa7e87ebbd87ed4f1c40bba63144f68fd2bb022fb748ab3b61b5411c39bd47430600654600560009054906101000a900460ff16604051808473ffffffffffffffffffffffffffffffffffffffff1673ffffffffffffffffffffffffffffffffffffffff16815260200183815260200182151515158152602001935050505060405180910390a150565b60065481565b6002806003811115610aff57fe5b600360149054906101000a900460ff166003811115610b1a57fe5b141515610b8f576040517f08c379a000000000000000000000000000000000000000000000000000000000815260040180806020018281038252600d8152602001807f496e76616c69642073746174650000000000000000000000000000000000000081525060200191505060405180910390fd5b600360009054906101000a900473ffffffffffffffffffffffffffffffffffffffff1673ffffffffffffffffffffffffffffffffffffffff166108fc6006549081150290604051600060405180830381858888f1935050505015610c155760038060146101000a81548160ff02191690836003811115610c0b57fe5b0217905550610c3a565b6001600360146101000a81548160ff02191690836003811115610c3457fe5b02179055505b50565b6000429050905600a165627a7a723058209c50e5699ff1c4c39933ba95b8b10307aac0f4da31a0fb1959fd22729a5523df0029",
  "source": "pragma solidity ^0.4.24;\r\n\r\nimport \"./Utils.sol\";\r\n\r\ncontract CrowdFunding{\r\n\r\n    using Utils for *;\r\n    \r\n    //@dev: tracks the state of the crowdfunding process\r\n    enum State {\r\n        Ongoing,\r\n        Failed,\r\n        Succeded,\r\n        PaidOut\r\n    }\r\n\r\n    event CampaignFinished(\r\n        address addr,\r\n        uint totalCollected,\r\n        bool suceeded\r\n    );\r\n\r\n    string public name;\r\n    uint public targetAmount;\r\n    uint public fundingDeadLine;\r\n    address public beneficiary;\r\n    State public state;\r\n    mapping(address => uint) public amounts; //@dev: to see how much each account deposit\r\n    bool public collected; //@dev: to see if we collected the enough amount of foounds\r\n    uint public totalCollected;\r\n\r\n    modifier inState(State expectedState){\r\n        require(state == expectedState, \"Invalid state\");\r\n        _;\r\n    }\r\n\r\n    constructor (\r\n        string contractName,\r\n        uint targetAmountEth,\r\n        uint durationInMin,\r\n        address beneficiaryAddress\r\n    ) public\r\n\r\n    {\r\n        name = contractName;\r\n        targetAmount = Utils.etherToWei(targetAmountEth);\r\n        fundingDeadLine = currentTime() + Utils.minutesToSeconds(durationInMin);\r\n        beneficiary = beneficiaryAddress;\r\n        state = State.Ongoing;\r\n    }\r\n\r\n\r\n    function contribute() public payable inState(State.Ongoing){\r\n        require(!beforeDeadLine(), \"No contributions after the deadline\");\r\n\r\n        amounts[msg.sender] += msg.value;\r\n        totalCollected += msg.value;\r\n\r\n        if(totalCollected >= targetAmount){\r\n            collected = true;\r\n        }\r\n\r\n        emit CampaignFinished(this, totalCollected, collected);\r\n    }\r\n\r\n    function finishCrowdFunding() public inState(State.Ongoing) {\r\n        require(beforeDeadLine(), \"Cannot finish the campaign before the deadline\");\r\n        if(!collected) {\r\n            state = State.Failed;\r\n        } else {\r\n            state = State.Succeded;\r\n        }\r\n    }\r\n\r\n    function collect() public inState(State.Succeded){\r\n        if(beneficiary.send(totalCollected)){\r\n            state = State.PaidOut;\r\n        }\r\n        else{\r\n            state = State.Failed;\r\n        }\r\n    }\r\n\r\n    function withdraw() public inState(State.Failed){\r\n        require(amounts[msg.sender] > 0, \"Nothing was contributed\");\r\n        uint contributed = amounts[msg.sender];\r\n        amounts[msg.sender] = 0;\r\n\r\n        if(!msg.sender.send(contributed)){\r\n            amounts[msg.sender] = contributed;\r\n        }\r\n\r\n    }\r\n\r\n    function beforeDeadLine() public view returns(bool){\r\n        return currentTime() > fundingDeadLine;\r\n    }\r\n\r\n    function currentTime() internal view returns(uint){\r\n        return now;\r\n    }\r\n}",
  "sourcePath": "C:\\Users\\PC1\\Desktop\\crowdFunding\\contracts\\CrowdFunding.sol",
  "compiler": {
    "name": "solc",
    "version": "0.4.25+commit.59dbf8f1.Emscripten.clang"
  },
  "schemaVersion": "3.3.4",
  "updatedAt": "2021-05-21T23:20:37.473Z",
  "devdoc": {
    "methods": {}
  },
  "userdoc": {
    "methods": {}
  }
}