{
  "contractName": "Utils",
  "abi": [
    {
      "constant": true,
      "inputs": [
        {
          "name": "_sumInEth",
          "type": "uint256"
        }
      ],
      "name": "etherToWei",
      "outputs": [
        {
          "name": "",
          "type": "uint256"
        }
      ],
      "payable": false,
      "stateMutability": "pure",
      "type": "function"
    },
    {
      "constant": true,
      "inputs": [
        {
          "name": "_timeInMin",
          "type": "uint256"
        }
      ],
      "name": "minutesToSeconds",
      "outputs": [
        {
          "name": "",
          "type": "uint256"
        }
      ],
      "payable": false,
      "stateMutability": "pure",
      "type": "function"
    }
  ],
  "bytecode": "0x610116610030600b82828239805160001a6073146000811461002057610022565bfe5b5030600052607381538281f30073000000000000000000000000000000000000000030146080604052600436106060576000357c0100000000000000000000000000000000000000000000000000000000900463ffffffff168063529b380f146065578063d8916bb9146097575b600080fd5b60816004803603810190808035906020019092919050505060c9565b6040518082815260200191505060405180910390f35b60b36004803603810190808035906020019092919050505060d6565b6040518082815260200191505060405180910390f35b6000603c82029050919050565b6000670de0b6b3a7640000820290509190505600a165627a7a723058206c0bf3833bf7732241184180fe70471bb09f16a768551d565dfadb7f5fadbff70029",
  "source": "pragma solidity ^0.4.24;\r\n\r\nlibrary Utils {\r\n    function etherToWei(uint _sumInEth) public pure returns (uint){\r\n        return _sumInEth * 1 ether;\r\n    }\r\n\r\n    function minutesToSeconds(uint _timeInMin) public pure returns(uint){\r\n        return _timeInMin * 1 minutes;\r\n    }\r\n}",
  "sourcePath": "C:/Users/PC1/Desktop/crowdFunding/contracts/utils.sol",
  "compiler": {
    "name": "solc",
    "version": "0.4.25+commit.59dbf8f1.Emscripten.clang"
  },
  "schemaVersion": "3.3.4",
  "updatedAt": "2021-05-21T23:20:37.575Z",
  "devdoc": {
    "methods": {}
  },
  "userdoc": {
    "methods": {}
  }
}